{
  "contractName": "LandRentalContract",
  "abi": [
    {
      "constant": true,
      "inputs": [],
      "name": "rentalCount",
      "outputs": [
        {
          "name": "",
          "type": "uint32"
        }
      ],
      "payable": false,
      "stateMutability": "view",
      "type": "function"
    },
    {
      "constant": true,
      "inputs": [
        {
          "name": "",
          "type": "uint256"
        }
      ],
      "name": "rentals",
      "outputs": [
        {
          "name": "id",
          "type": "uint32"
        },
        {
          "name": "userId",
          "type": "string"
        },
        {
          "name": "landId",
          "type": "string"
        },
        {
          "name": "startDate",
          "type": "string"
        },
        {
          "name": "endDate",
          "type": "string"
        },
        {
          "name": "totalPrice",
          "type": "string"
        },
        {
          "name": "monthlyPrice",
          "type": "string"
        },
        {
          "name": "isActive",
          "type": "bool"
        }
      ],
      "payable": false,
      "stateMutability": "view",
      "type": "function"
    },
    {
      "anonymous": false,
      "inputs": [
        {
          "indexed": false,
          "name": "id",
          "type": "uint32"
        },
        {
          "indexed": false,
          "name": "userId",
          "type": "string"
        },
        {
          "indexed": false,
          "name": "startDate",
          "type": "string"
        },
        {
          "indexed": false,
          "name": "endDate",
          "type": "string"
        }
      ],
      "name": "RentalCreated",
      "type": "event"
    },
    {
      "anonymous": false,
      "inputs": [
        {
          "indexed": false,
          "name": "id",
          "type": "uint32"
        }
      ],
      "name": "RentalTerminated",
      "type": "event"
    },
    {
      "constant": false,
      "inputs": [
        {
          "name": "userId",
          "type": "string"
        },
        {
          "name": "landId",
          "type": "string"
        },
        {
          "name": "startDate",
          "type": "string"
        },
        {
          "name": "endDate",
          "type": "string"
        },
        {
          "name": "price",
          "type": "string"
        },
        {
          "name": "totalPrice",
          "type": "string"
        }
      ],
      "name": "createRental",
      "outputs": [],
      "payable": false,
      "stateMutability": "nonpayable",
      "type": "function"
    },
    {
      "constant": false,
      "inputs": [
        {
          "name": "id",
          "type": "uint32"
        }
      ],
      "name": "terminateRental",
      "outputs": [],
      "payable": false,
      "stateMutability": "nonpayable",
      "type": "function"
    },
    {
      "constant": true,
      "inputs": [
        {
          "name": "id",
          "type": "uint32"
        }
      ],
      "name": "getRental",
      "outputs": [
        {
          "components": [
            {
              "name": "id",
              "type": "uint32"
            },
            {
              "name": "userId",
              "type": "string"
            },
            {
              "name": "landId",
              "type": "string"
            },
            {
              "name": "startDate",
              "type": "string"
            },
            {
              "name": "endDate",
              "type": "string"
            },
            {
              "name": "totalPrice",
              "type": "string"
            },
            {
              "name": "monthlyPrice",
              "type": "string"
            },
            {
              "name": "isActive",
              "type": "bool"
            }
          ],
          "name": "",
          "type": "tuple"
        }
      ],
      "payable": false,
      "stateMutability": "view",
      "type": "function"
    },
    {
      "constant": true,
      "inputs": [],
      "name": "getRentals",
      "outputs": [
        {
          "components": [
            {
              "name": "id",
              "type": "uint32"
            },
            {
              "name": "userId",
              "type": "string"
            },
            {
              "name": "landId",
              "type": "string"
            },
            {
              "name": "startDate",
              "type": "string"
            },
            {
              "name": "endDate",
              "type": "string"
            },
            {
              "name": "totalPrice",
              "type": "string"
            },
            {
              "name": "monthlyPrice",
              "type": "string"
            },
            {
              "name": "isActive",
              "type": "bool"
            }
          ],
          "name": "",
          "type": "tuple[]"
        }
      ],
      "payable": false,
      "stateMutability": "view",
      "type": "function"
    }
  ],
  "bytecode": "0x608060405260008060006101000a81548163ffffffff021916908363ffffffff16021790555034801561003157600080fd5b50611eef806100416000396000f3fe608060405260043610610072576000357c0100000000000000000000000000000000000000000000000000000000900480630a294ab6146100775780631de524dd146100a2578063314e17f2146100cb5780633209be9c146100f45780635ea5da2014610131578063af94a1d11461015c575b600080fd5b34801561008357600080fd5b5061008c6101a0565b6040516100999190611c7b565b60405180910390f35b3480156100ae57600080fd5b506100c960048036036100c491908101906116e9565b6101b5565b005b3480156100d757600080fd5b506100f260048036036100ed91908101906115a7565b610325565b005b34801561010057600080fd5b5061011b600480360361011691908101906116e9565b61072b565b6040516101289190611c59565b60405180910390f35b34801561013d57600080fd5b50610146610bc4565b6040516101539190611b57565b60405180910390f35b34801561016857600080fd5b50610183600480360361017e91908101906116c0565b611032565b604051610197989796959493929190611cf0565b60405180910390f35b6000809054906101000a900463ffffffff1681565b600060018263ffffffff168154811015156101cc57fe5b906000526020600020906008020160000160009054906101000a900463ffffffff1663ffffffff1614151515610237576040517f08c379a000000000000000000000000000000000000000000000000000000000815260040161022e90611b79565b60405180910390fd5b60018163ffffffff1681548110151561024c57fe5b906000526020600020906008020160070160009054906101000a900460ff1615156102ac576040517f08c379a00000000000000000000000000000000000000000000000000000000081526004016102a390611bf9565b60405180910390fd5b600060018263ffffffff168154811015156102c357fe5b906000526020600020906008020160070160006101000a81548160ff0219169083151502179055507fa6034daf8bb5917ec06e37c45d186f20cf4bf384dc37f48db11e316de69667d18160405161031a9190611c7b565b60405180910390a150565b6000865111151561036b576040517f08c379a000000000000000000000000000000000000000000000000000000000815260040161036290611bd9565b60405180910390fd5b600084511115156103b1576040517f08c379a00000000000000000000000000000000000000000000000000000000081526004016103a890611bb9565b60405180910390fd5b600083511115156103f7576040517f08c379a00000000000000000000000000000000000000000000000000000000081526004016103ee90611c19565b60405180910390fd5b826040516020018082805190602001908083835b602083101515610430578051825260208201915060208101905060208303925061040b565b6001836020036101000a03801982511681845116808217855250505050505090500191505060405160208183030381529060405280519060200120846040516020018082805190602001908083835b6020831015156104a4578051825260208201915060208101905060208303925061047f565b6001836020036101000a03801982511681845116808217855250505050505090500191505060405160208183030381529060405280519060200120101515610521576040517f08c379a000000000000000000000000000000000000000000000000000000000815260040161051890611b99565b60405180910390fd5b6001610100604051908101604052806000809054906101000a900463ffffffff1663ffffffff168152602001888152602001878152602001868152602001858152602001838152602001848152602001600115158152509080600181540180825580915050906001820390600052602060002090600802016000909192909190915060008201518160000160006101000a81548163ffffffff021916908363ffffffff16021790555060208201518160010190805190602001906105e6929190611436565b506040820151816002019080519060200190610603929190611436565b506060820151816003019080519060200190610620929190611436565b50608082015181600401908051906020019061063d929190611436565b5060a082015181600501908051906020019061065a929190611436565b5060c0820151816006019080519060200190610677929190611436565b5060e08201518160070160006101000a81548160ff02191690831515021790555050505060008081819054906101000a900463ffffffff168092919060010191906101000a81548163ffffffff021916908363ffffffff160217905550507f8c72edcb588f7e32f707897d43ebbc9ed668128ce77cd646562375d4d022278a6000809054906101000a900463ffffffff1687868660405161071b9493929190611c96565b60405180910390a1505050505050565b6107336114b6565b60008263ffffffff1611151561077e576040517f08c379a000000000000000000000000000000000000000000000000000000000815260040161077590611c39565b60405180910390fd5b600180830363ffffffff1681548110151561079557fe5b906000526020600020906008020161010060405190810160405290816000820160009054906101000a900463ffffffff1663ffffffff1663ffffffff168152602001600182018054600181600116156101000203166002900480601f01602080910402602001604051908101604052809291908181526020018280546001816001161561010002031660029004801561086f5780601f106108445761010080835404028352916020019161086f565b820191906000526020600020905b81548152906001019060200180831161085257829003601f168201915b50505050508152602001600282018054600181600116156101000203166002900480601f0160208091040260200160405190810160405280929190818152602001828054600181600116156101000203166002900480156109115780601f106108e657610100808354040283529160200191610911565b820191906000526020600020905b8154815290600101906020018083116108f457829003601f168201915b50505050508152602001600382018054600181600116156101000203166002900480601f0160208091040260200160405190810160405280929190818152602001828054600181600116156101000203166002900480156109b35780601f10610988576101008083540402835291602001916109b3565b820191906000526020600020905b81548152906001019060200180831161099657829003601f168201915b50505050508152602001600482018054600181600116156101000203166002900480601f016020809104026020016040519081016040528092919081815260200182805460018160011615610100020316600290048015610a555780601f10610a2a57610100808354040283529160200191610a55565b820191906000526020600020905b815481529060010190602001808311610a3857829003601f168201915b50505050508152602001600582018054600181600116156101000203166002900480601f016020809104026020016040519081016040528092919081815260200182805460018160011615610100020316600290048015610af75780601f10610acc57610100808354040283529160200191610af7565b820191906000526020600020905b815481529060010190602001808311610ada57829003601f168201915b50505050508152602001600682018054600181600116156101000203166002900480601f016020809104026020016040519081016040528092919081815260200182805460018160011615610100020316600290048015610b995780601f10610b6e57610100808354040283529160200191610b99565b820191906000526020600020905b815481529060010190602001808311610b7c57829003601f168201915b505050505081526020016007820160009054906101000a900460ff1615151515815250509050919050565b60606001805480602002602001604051908101604052809291908181526020016000905b82821015611029578382906000526020600020906008020161010060405190810160405290816000820160009054906101000a900463ffffffff1663ffffffff1663ffffffff168152602001600182018054600181600116156101000203166002900480601f016020809104026020016040519081016040528092919081815260200182805460018160011615610100020316600290048015610ccc5780601f10610ca157610100808354040283529160200191610ccc565b820191906000526020600020905b815481529060010190602001808311610caf57829003601f168201915b50505050508152602001600282018054600181600116156101000203166002900480601f016020809104026020016040519081016040528092919081815260200182805460018160011615610100020316600290048015610d6e5780601f10610d4357610100808354040283529160200191610d6e565b820191906000526020600020905b815481529060010190602001808311610d5157829003601f168201915b50505050508152602001600382018054600181600116156101000203166002900480601f016020809104026020016040519081016040528092919081815260200182805460018160011615610100020316600290048015610e105780601f10610de557610100808354040283529160200191610e10565b820191906000526020600020905b815481529060010190602001808311610df357829003601f168201915b50505050508152602001600482018054600181600116156101000203166002900480601f016020809104026020016040519081016040528092919081815260200182805460018160011615610100020316600290048015610eb25780601f10610e8757610100808354040283529160200191610eb2565b820191906000526020600020905b815481529060010190602001808311610e9557829003601f168201915b50505050508152602001600582018054600181600116156101000203166002900480601f016020809104026020016040519081016040528092919081815260200182805460018160011615610100020316600290048015610f545780601f10610f2957610100808354040283529160200191610f54565b820191906000526020600020905b815481529060010190602001808311610f3757829003601f168201915b50505050508152602001600682018054600181600116156101000203166002900480601f016020809104026020016040519081016040528092919081815260200182805460018160011615610100020316600290048015610ff65780601f10610fcb57610100808354040283529160200191610ff6565b820191906000526020600020905b815481529060010190602001808311610fd957829003601f168201915b505050505081526020016007820160009054906101000a900460ff16151515158152505081526020019060010190610be8565b50505050905090565b60018181548110151561104157fe5b90600052602060002090600802016000915090508060000160009054906101000a900463ffffffff1690806001018054600181600116156101000203166002900480601f0160208091040260200160405190810160405280929190818152602001828054600181600116156101000203166002900480156111035780601f106110d857610100808354040283529160200191611103565b820191906000526020600020905b8154815290600101906020018083116110e657829003601f168201915b505050505090806002018054600181600116156101000203166002900480601f0160208091040260200160405190810160405280929190818152602001828054600181600116156101000203166002900480156111a15780601f10611176576101008083540402835291602001916111a1565b820191906000526020600020905b81548152906001019060200180831161118457829003601f168201915b505050505090806003018054600181600116156101000203166002900480601f01602080910402602001604051908101604052809291908181526020018280546001816001161561010002031660029004801561123f5780601f106112145761010080835404028352916020019161123f565b820191906000526020600020905b81548152906001019060200180831161122257829003601f168201915b505050505090806004018054600181600116156101000203166002900480601f0160208091040260200160405190810160405280929190818152602001828054600181600116156101000203166002900480156112dd5780601f106112b2576101008083540402835291602001916112dd565b820191906000526020600020905b8154815290600101906020018083116112c057829003601f168201915b505050505090806005018054600181600116156101000203166002900480601f01602080910402602001604051908101604052809291908181526020018280546001816001161561010002031660029004801561137b5780601f106113505761010080835404028352916020019161137b565b820191906000526020600020905b81548152906001019060200180831161135e57829003601f168201915b505050505090806006018054600181600116156101000203166002900480601f0160208091040260200160405190810160405280929190818152602001828054600181600116156101000203166002900480156114195780601f106113ee57610100808354040283529160200191611419565b820191906000526020600020905b8154815290600101906020018083116113fc57829003601f168201915b5050505050908060070160009054906101000a900460ff16905088565b828054600181600116156101000203166002900490600052602060002090601f016020900481019282601f1061147757805160ff19168380011785556114a5565b828001600101855582156114a5579182015b828111156114a4578251825591602001919060010190611489565b5b5090506114b29190611504565b5090565b61010060405190810160405280600063ffffffff1681526020016060815260200160608152602001606081526020016060815260200160608152602001606081526020016000151581525090565b61152691905b8082111561152257600081600090555060010161150a565b5090565b90565b600082601f830112151561153c57600080fd5b813561154f61154a82611dc5565b611d98565b9150808252602083016020830185838301111561156b57600080fd5b611576838284611e62565b50505092915050565b600061158b8235611e48565b905092915050565b600061159f8235611e52565b905092915050565b60008060008060008060c087890312156115c057600080fd5b600087013567ffffffffffffffff8111156115da57600080fd5b6115e689828a01611529565b965050602087013567ffffffffffffffff81111561160357600080fd5b61160f89828a01611529565b955050604087013567ffffffffffffffff81111561162c57600080fd5b61163889828a01611529565b945050606087013567ffffffffffffffff81111561165557600080fd5b61166189828a01611529565b935050608087013567ffffffffffffffff81111561167e57600080fd5b61168a89828a01611529565b92505060a087013567ffffffffffffffff8111156116a757600080fd5b6116b389828a01611529565b9150509295509295509295565b6000602082840312156116d257600080fd5b60006116e08482850161157f565b91505092915050565b6000602082840312156116fb57600080fd5b600061170984828501611593565b91505092915050565b600061171d82611dfe565b8084526020840193508360208202850161173685611df1565b60005b8481101561176f578383038852611751838351611a75565b925061175c82611e1f565b9150602088019750600181019050611739565b508196508694505050505092915050565b61178981611e2c565b82525050565b600061179a82611e14565b8084526117ae816020860160208601611e71565b6117b781611ea4565b602085010191505092915050565b60006117d082611e09565b8084526117e4816020860160208601611e71565b6117ed81611ea4565b602085010191505092915050565b6000601582527f52656e74616c20646f6573206e6f7420657869737400000000000000000000006020830152604082019050919050565b6000602282527f53746172742064617465206d757374206265206265666f726520656e6420646160208301527f74650000000000000000000000000000000000000000000000000000000000006040830152606082019050919050565b6000601682527f53746172742064617465206973207265717569726564000000000000000000006020830152604082019050919050565b6000601382527f55736572204944206973207265717569726564000000000000000000000000006020830152604082019050919050565b6000601c82527f52656e74616c20697320616c7265616479207465726d696e61746564000000006020830152604082019050919050565b6000601482527f456e6420646174652069732072657175697265640000000000000000000000006020830152604082019050919050565b6000600d82527f696e76616c696420696e646578000000000000000000000000000000000000006020830152604082019050919050565b6000610100830160008301516119bb6000860182611b48565b50602083015184820360208601526119d382826117c5565b915050604083015184820360408601526119ed82826117c5565b91505060608301518482036060860152611a0782826117c5565b91505060808301518482036080860152611a2182826117c5565b91505060a083015184820360a0860152611a3b82826117c5565b91505060c083015184820360c0860152611a5582826117c5565b91505060e0830151611a6a60e0860182611780565b508091505092915050565b600061010083016000830151611a8e6000860182611b48565b5060208301518482036020860152611aa682826117c5565b91505060408301518482036040860152611ac082826117c5565b91505060608301518482036060860152611ada82826117c5565b91505060808301518482036080860152611af482826117c5565b91505060a083015184820360a0860152611b0e82826117c5565b91505060c083015184820360c0860152611b2882826117c5565b91505060e0830151611b3d60e0860182611780565b508091505092915050565b611b5181611e38565b82525050565b60006020820190508181036000830152611b718184611712565b905092915050565b60006020820190508181036000830152611b92816117fb565b9050919050565b60006020820190508181036000830152611bb281611832565b9050919050565b60006020820190508181036000830152611bd28161188f565b9050919050565b60006020820190508181036000830152611bf2816118c6565b9050919050565b60006020820190508181036000830152611c12816118fd565b9050919050565b60006020820190508181036000830152611c3281611934565b9050919050565b60006020820190508181036000830152611c528161196b565b9050919050565b60006020820190508181036000830152611c7381846119a2565b905092915050565b6000602082019050611c906000830184611b48565b92915050565b6000608082019050611cab6000830187611b48565b8181036020830152611cbd818661178f565b90508181036040830152611cd1818561178f565b90508181036060830152611ce5818461178f565b905095945050505050565b600061010082019050611d06600083018b611b48565b8181036020830152611d18818a6117c5565b90508181036040830152611d2c81896117c5565b90508181036060830152611d4081886117c5565b90508181036080830152611d5481876117c5565b905081810360a0830152611d6881866117c5565b905081810360c0830152611d7c81856117c5565b9050611d8b60e0830184611780565b9998505050505050505050565b6000604051905081810181811067ffffffffffffffff82111715611dbb57600080fd5b8060405250919050565b600067ffffffffffffffff821115611ddc57600080fd5b601f19601f8301169050602081019050919050565b6000602082019050919050565b600081519050919050565b600081519050919050565b600081519050919050565b6000602082019050919050565b60008115159050919050565b600063ffffffff82169050919050565b6000819050919050565b600063ffffffff82169050919050565b82818337600083830152505050565b60005b83811015611e8f578082015181840152602081019050611e74565b83811115611e9e576000848401525b50505050565b6000601f19601f830116905091905056fea265627a7a72305820affa91e8d35e98df0daed5766e62848839bf2eb85ae38bc67658fb23f08ceddc6c6578706572696d656e74616cf50037",
  "source": "// SPDX-License-Identifier: MIT\r\npragma solidity >=0.4.22 <0.9.0;\r\npragma experimental ABIEncoderV2;\r\ncontract LandRentalContract {\r\n    uint32 public rentalCount = 0;\r\n\r\n    struct Rental {\r\n        uint32 id;\r\n        string userId;\r\n        string landId;\r\n        string startDate;\r\n        string endDate;\r\n        string totalPrice;\r\n        string monthlyPrice;\r\n        bool isActive;\r\n    }\r\n\r\n    Rental[] public rentals;\r\n\r\n    event RentalCreated(\r\n        uint32 id,\r\n        string userId,\r\n        string startDate,\r\n        string endDate\r\n    );\r\n\r\n    event RentalTerminated(uint32 id);\r\n\r\n    function createRental(string memory userId, string memory landId, string memory startDate, string memory endDate, string memory price, string memory totalPrice) public {\r\n        require(bytes(userId).length > 0, \"User ID is required\");\r\n        require(bytes(startDate).length > 0, \"Start date is required\");\r\n        require(bytes(endDate).length > 0, \"End date is required\");\r\n        require(keccak256(abi.encodePacked(startDate)) < keccak256(abi.encodePacked(endDate)), \"Start date must be before end date\");\r\n        rentals.push(Rental(\r\n            rentalCount,\r\n            userId,\r\n            landId,\r\n            startDate,\r\n            endDate,\r\n            totalPrice,\r\n            price,\r\n            true\r\n        ));\r\n        rentalCount++;\r\n\r\n        emit RentalCreated(rentalCount, userId, startDate, endDate);\r\n    }\r\n\r\n    function terminateRental(uint32 id) public {\r\n        require(rentals[id].id != 0, \"Rental does not exist\");\r\n        require(rentals[id].isActive, \"Rental is already terminated\");\r\n\r\n        rentals[id].isActive = false;\r\n        emit RentalTerminated(id);\r\n    }\r\n\r\n    function getRental(uint32 id) public view returns (Rental memory) {\r\n        require(id > 0, \"invalid index\");\r\n        return rentals[id - 1];\r\n    }\r\n\r\n    function getRentals() public view returns (Rental[] memory) {\r\n        return rentals;\r\n    }\r\n}\r\n",
  "sourcePath": "D:\\4SIM\\PIM\\pim_backend\\smart_farming\\apps\\blockchain\\src\\solidity\\contracts\\LandRentalContract.sol",
  "compiler": {
    "name": "solc",
    "version": "0.5.1+commit.c8a2cb62.Emscripten.clang"
  },
  "schemaVersion": "3.4.16",
  "updatedAt": "2025-05-05T10:59:47.065Z",
  "networkType": "ethereum",
  "devdoc": {
    "methods": {}
  },
  "userdoc": {
    "methods": {}
  }
}