{
  "contractName": "LandRentalContract",
  "abi": [
    {
      "constant": true,
      "inputs": [],
      "name": "rentalCount",
      "outputs": [
        {
          "name": "",
          "type": "uint32"
        }
      ],
      "payable": false,
      "stateMutability": "view",
      "type": "function"
    },
    {
      "constant": true,
      "inputs": [
        {
          "name": "",
          "type": "uint256"
        }
      ],
      "name": "rentals",
      "outputs": [
        {
          "name": "id",
          "type": "uint32"
        },
        {
          "name": "ownerId",
          "type": "string"
        },
        {
          "name": "rentingUserId",
          "type": "string"
        },
        {
          "name": "userName",
          "type": "string"
        },
        {
          "name": "landId",
          "type": "string"
        },
        {
          "name": "landName",
          "type": "string"
        },
        {
          "name": "landLocation",
          "type": "string"
        },
        {
          "name": "startDate",
          "type": "string"
        },
        {
          "name": "endDate",
          "type": "string"
        },
        {
          "name": "totalPrice",
          "type": "string"
        },
        {
          "name": "monthlyPrice",
          "type": "string"
        },
        {
          "name": "isActive",
          "type": "bool"
        }
      ],
      "payable": false,
      "stateMutability": "view",
      "type": "function"
    },
    {
      "anonymous": false,
      "inputs": [
        {
          "indexed": false,
          "name": "id",
          "type": "uint32"
        },
        {
          "indexed": false,
          "name": "userId",
          "type": "string"
        },
        {
          "indexed": false,
          "name": "startDate",
          "type": "string"
        },
        {
          "indexed": false,
          "name": "endDate",
          "type": "string"
        }
      ],
      "name": "RentalCreated",
      "type": "event"
    },
    {
      "anonymous": false,
      "inputs": [
        {
          "indexed": false,
          "name": "id",
          "type": "uint32"
        }
      ],
      "name": "RentalTerminated",
      "type": "event"
    },
    {
      "constant": false,
      "inputs": [
        {
          "name": "userId",
          "type": "string"
        },
        {
          "name": "rentingUserId",
          "type": "string"
        },
        {
          "name": "userName",
          "type": "string"
        },
        {
          "name": "landId",
          "type": "string"
        },
        {
          "name": "landName",
          "type": "string"
        },
        {
          "name": "landLocation",
          "type": "string"
        },
        {
          "name": "startDate",
          "type": "string"
        },
        {
          "name": "endDate",
          "type": "string"
        },
        {
          "name": "price",
          "type": "string"
        },
        {
          "name": "totalPrice",
          "type": "string"
        }
      ],
      "name": "createRental",
      "outputs": [],
      "payable": false,
      "stateMutability": "nonpayable",
      "type": "function"
    },
    {
      "constant": false,
      "inputs": [
        {
          "name": "id",
          "type": "uint32"
        }
      ],
      "name": "terminateRental",
      "outputs": [],
      "payable": false,
      "stateMutability": "nonpayable",
      "type": "function"
    },
    {
      "constant": true,
      "inputs": [
        {
          "name": "id",
          "type": "uint32"
        }
      ],
      "name": "getRental",
      "outputs": [
        {
          "components": [
            {
              "name": "id",
              "type": "uint32"
            },
            {
              "name": "ownerId",
              "type": "string"
            },
            {
              "name": "rentingUserId",
              "type": "string"
            },
            {
              "name": "userName",
              "type": "string"
            },
            {
              "name": "landId",
              "type": "string"
            },
            {
              "name": "landName",
              "type": "string"
            },
            {
              "name": "landLocation",
              "type": "string"
            },
            {
              "name": "startDate",
              "type": "string"
            },
            {
              "name": "endDate",
              "type": "string"
            },
            {
              "name": "totalPrice",
              "type": "string"
            },
            {
              "name": "monthlyPrice",
              "type": "string"
            },
            {
              "name": "isActive",
              "type": "bool"
            }
          ],
          "name": "",
          "type": "tuple"
        }
      ],
      "payable": false,
      "stateMutability": "view",
      "type": "function"
    },
    {
      "constant": true,
      "inputs": [],
      "name": "getRentals",
      "outputs": [
        {
          "components": [
            {
              "name": "id",
              "type": "uint32"
            },
            {
              "name": "ownerId",
              "type": "string"
            },
            {
              "name": "rentingUserId",
              "type": "string"
            },
            {
              "name": "userName",
              "type": "string"
            },
            {
              "name": "landId",
              "type": "string"
            },
            {
              "name": "landName",
              "type": "string"
            },
            {
              "name": "landLocation",
              "type": "string"
            },
            {
              "name": "startDate",
              "type": "string"
            },
            {
              "name": "endDate",
              "type": "string"
            },
            {
              "name": "totalPrice",
              "type": "string"
            },
            {
              "name": "monthlyPrice",
              "type": "string"
            },
            {
              "name": "isActive",
              "type": "bool"
            }
          ],
          "name": "",
          "type": "tuple[]"
        }
      ],
      "payable": false,
      "stateMutability": "view",
      "type": "function"
    }
  ],
  "bytecode": "0x608060405260008060006101000a81548163ffffffff021916908363ffffffff16021790555034801561003157600080fd5b5061276e806100416000396000f3fe608060405260043610610072576000357c0100000000000000000000000000000000000000000000000000000000900480630a294ab6146100775780631de524dd146100a25780633209be9c146100cb5780633df5a52b146101085780635ea5da2014610131578063af94a1d11461015c575b600080fd5b34801561008357600080fd5b5061008c6101a4565b60405161009991906124a2565b60405180910390f35b3480156100ae57600080fd5b506100c960048036036100c49190810190611ead565b6101b9565b005b3480156100d757600080fd5b506100f260048036036100ed9190810190611ead565b610329565b6040516100ff9190612480565b60405180910390f35b34801561011457600080fd5b5061012f600480360361012a9190810190611cb9565b610a4a565b005b34801561013d57600080fd5b50610146610dba565b604051610153919061239e565b60405180910390f35b34801561016857600080fd5b50610183600480360361017e9190810190611e84565b6114b0565b60405161019b9c9b9a99989796959493929190612517565b60405180910390f35b6000809054906101000a900463ffffffff1681565b600060018263ffffffff168154811015156101d057fe5b90600052602060002090600c020160000160009054906101000a900463ffffffff1663ffffffff161415151561023b576040517f08c379a0000000000000000000000000000000000000000000000000000000008152600401610232906123c0565b60405180910390fd5b60018163ffffffff1681548110151561025057fe5b90600052602060002090600c0201600b0160009054906101000a900460ff1615156102b0576040517f08c379a00000000000000000000000000000000000000000000000000000000081526004016102a790612420565b60405180910390fd5b600060018263ffffffff168154811015156102c757fe5b90600052602060002090600c0201600b0160006101000a81548160ff0219169083151502179055507fa6034daf8bb5917ec06e37c45d186f20cf4bf384dc37f48db11e316de69667d18160405161031e91906124a2565b60405180910390a150565b610331611b2c565b60008263ffffffff1611151561037c576040517f08c379a000000000000000000000000000000000000000000000000000000000815260040161037390612460565b60405180910390fd5b600180830363ffffffff1681548110151561039357fe5b90600052602060002090600c020161018060405190810160405290816000820160009054906101000a900463ffffffff1663ffffffff1663ffffffff168152602001600182018054600181600116156101000203166002900480601f01602080910402602001604051908101604052809291908181526020018280546001816001161561010002031660029004801561046d5780601f106104425761010080835404028352916020019161046d565b820191906000526020600020905b81548152906001019060200180831161045057829003601f168201915b50505050508152602001600282018054600181600116156101000203166002900480601f01602080910402602001604051908101604052809291908181526020018280546001816001161561010002031660029004801561050f5780601f106104e45761010080835404028352916020019161050f565b820191906000526020600020905b8154815290600101906020018083116104f257829003601f168201915b50505050508152602001600382018054600181600116156101000203166002900480601f0160208091040260200160405190810160405280929190818152602001828054600181600116156101000203166002900480156105b15780601f10610586576101008083540402835291602001916105b1565b820191906000526020600020905b81548152906001019060200180831161059457829003601f168201915b50505050508152602001600482018054600181600116156101000203166002900480601f0160208091040260200160405190810160405280929190818152602001828054600181600116156101000203166002900480156106535780601f1061062857610100808354040283529160200191610653565b820191906000526020600020905b81548152906001019060200180831161063657829003601f168201915b50505050508152602001600582018054600181600116156101000203166002900480601f0160208091040260200160405190810160405280929190818152602001828054600181600116156101000203166002900480156106f55780601f106106ca576101008083540402835291602001916106f5565b820191906000526020600020905b8154815290600101906020018083116106d857829003601f168201915b50505050508152602001600682018054600181600116156101000203166002900480601f0160208091040260200160405190810160405280929190818152602001828054600181600116156101000203166002900480156107975780601f1061076c57610100808354040283529160200191610797565b820191906000526020600020905b81548152906001019060200180831161077a57829003601f168201915b50505050508152602001600782018054600181600116156101000203166002900480601f0160208091040260200160405190810160405280929190818152602001828054600181600116156101000203166002900480156108395780601f1061080e57610100808354040283529160200191610839565b820191906000526020600020905b81548152906001019060200180831161081c57829003601f168201915b50505050508152602001600882018054600181600116156101000203166002900480601f0160208091040260200160405190810160405280929190818152602001828054600181600116156101000203166002900480156108db5780601f106108b0576101008083540402835291602001916108db565b820191906000526020600020905b8154815290600101906020018083116108be57829003601f168201915b50505050508152602001600982018054600181600116156101000203166002900480601f01602080910402602001604051908101604052809291908181526020018280546001816001161561010002031660029004801561097d5780601f106109525761010080835404028352916020019161097d565b820191906000526020600020905b81548152906001019060200180831161096057829003601f168201915b50505050508152602001600a82018054600181600116156101000203166002900480601f016020809104026020016040519081016040528092919081815260200182805460018160011615610100020316600290048015610a1f5780601f106109f457610100808354040283529160200191610a1f565b820191906000526020600020905b815481529060010190602001808311610a0257829003601f168201915b50505050508152602001600b820160009054906101000a900460ff1615151515815250509050919050565b60008a51111515610a90576040517f08c379a0000000000000000000000000000000000000000000000000000000008152600401610a8790612400565b60405180910390fd5b60008451111515610ad6576040517f08c379a0000000000000000000000000000000000000000000000000000000008152600401610acd906123e0565b60405180910390fd5b60008351111515610b1c576040517f08c379a0000000000000000000000000000000000000000000000000000000008152600401610b1390612440565b60405180910390fd5b6001610180604051908101604052806000809054906101000a900463ffffffff1663ffffffff1681526020018c81526020018b81526020018a8152602001898152602001888152602001878152602001868152602001858152602001838152602001848152602001600115158152509080600181540180825580915050906001820390600052602060002090600c02016000909192909190915060008201518160000160006101000a81548163ffffffff021916908363ffffffff1602179055506020820151816001019080519060200190610bf9929190611b96565b506040820151816002019080519060200190610c16929190611b96565b506060820151816003019080519060200190610c33929190611b96565b506080820151816004019080519060200190610c50929190611b96565b5060a0820151816005019080519060200190610c6d929190611b96565b5060c0820151816006019080519060200190610c8a929190611b96565b5060e0820151816007019080519060200190610ca7929190611b96565b50610100820151816008019080519060200190610cc5929190611b96565b50610120820151816009019080519060200190610ce3929190611b96565b5061014082015181600a019080519060200190610d01929190611b96565b5061016082015181600b0160006101000a81548160ff02191690831515021790555050505060008081819054906101000a900463ffffffff168092919060010191906101000a81548163ffffffff021916908363ffffffff160217905550507f8c72edcb588f7e32f707897d43ebbc9ed668128ce77cd646562375d4d022278a6000809054906101000a900463ffffffff168b8686604051610da694939291906124bd565b60405180910390a150505050505050505050565b60606001805480602002602001604051908101604052809291908181526020016000905b828210156114a757838290600052602060002090600c020161018060405190810160405290816000820160009054906101000a900463ffffffff1663ffffffff1663ffffffff168152602001600182018054600181600116156101000203166002900480601f016020809104026020016040519081016040528092919081815260200182805460018160011615610100020316600290048015610ec25780601f10610e9757610100808354040283529160200191610ec2565b820191906000526020600020905b815481529060010190602001808311610ea557829003601f168201915b50505050508152602001600282018054600181600116156101000203166002900480601f016020809104026020016040519081016040528092919081815260200182805460018160011615610100020316600290048015610f645780601f10610f3957610100808354040283529160200191610f64565b820191906000526020600020905b815481529060010190602001808311610f4757829003601f168201915b50505050508152602001600382018054600181600116156101000203166002900480601f0160208091040260200160405190810160405280929190818152602001828054600181600116156101000203166002900480156110065780601f10610fdb57610100808354040283529160200191611006565b820191906000526020600020905b815481529060010190602001808311610fe957829003601f168201915b50505050508152602001600482018054600181600116156101000203166002900480601f0160208091040260200160405190810160405280929190818152602001828054600181600116156101000203166002900480156110a85780601f1061107d576101008083540402835291602001916110a8565b820191906000526020600020905b81548152906001019060200180831161108b57829003601f168201915b50505050508152602001600582018054600181600116156101000203166002900480601f01602080910402602001604051908101604052809291908181526020018280546001816001161561010002031660029004801561114a5780601f1061111f5761010080835404028352916020019161114a565b820191906000526020600020905b81548152906001019060200180831161112d57829003601f168201915b50505050508152602001600682018054600181600116156101000203166002900480601f0160208091040260200160405190810160405280929190818152602001828054600181600116156101000203166002900480156111ec5780601f106111c1576101008083540402835291602001916111ec565b820191906000526020600020905b8154815290600101906020018083116111cf57829003601f168201915b50505050508152602001600782018054600181600116156101000203166002900480601f01602080910402602001604051908101604052809291908181526020018280546001816001161561010002031660029004801561128e5780601f106112635761010080835404028352916020019161128e565b820191906000526020600020905b81548152906001019060200180831161127157829003601f168201915b50505050508152602001600882018054600181600116156101000203166002900480601f0160208091040260200160405190810160405280929190818152602001828054600181600116156101000203166002900480156113305780601f1061130557610100808354040283529160200191611330565b820191906000526020600020905b81548152906001019060200180831161131357829003601f168201915b50505050508152602001600982018054600181600116156101000203166002900480601f0160208091040260200160405190810160405280929190818152602001828054600181600116156101000203166002900480156113d25780601f106113a7576101008083540402835291602001916113d2565b820191906000526020600020905b8154815290600101906020018083116113b557829003601f168201915b50505050508152602001600a82018054600181600116156101000203166002900480601f0160208091040260200160405190810160405280929190818152602001828054600181600116156101000203166002900480156114745780601f1061144957610100808354040283529160200191611474565b820191906000526020600020905b81548152906001019060200180831161145757829003601f168201915b50505050508152602001600b820160009054906101000a900460ff16151515158152505081526020019060010190610dde565b50505050905090565b6001818154811015156114bf57fe5b90600052602060002090600c02016000915090508060000160009054906101000a900463ffffffff1690806001018054600181600116156101000203166002900480601f0160208091040260200160405190810160405280929190818152602001828054600181600116156101000203166002900480156115815780601f1061155657610100808354040283529160200191611581565b820191906000526020600020905b81548152906001019060200180831161156457829003601f168201915b505050505090806002018054600181600116156101000203166002900480601f01602080910402602001604051908101604052809291908181526020018280546001816001161561010002031660029004801561161f5780601f106115f45761010080835404028352916020019161161f565b820191906000526020600020905b81548152906001019060200180831161160257829003601f168201915b505050505090806003018054600181600116156101000203166002900480601f0160208091040260200160405190810160405280929190818152602001828054600181600116156101000203166002900480156116bd5780601f10611692576101008083540402835291602001916116bd565b820191906000526020600020905b8154815290600101906020018083116116a057829003601f168201915b505050505090806004018054600181600116156101000203166002900480601f01602080910402602001604051908101604052809291908181526020018280546001816001161561010002031660029004801561175b5780601f106117305761010080835404028352916020019161175b565b820191906000526020600020905b81548152906001019060200180831161173e57829003601f168201915b505050505090806005018054600181600116156101000203166002900480601f0160208091040260200160405190810160405280929190818152602001828054600181600116156101000203166002900480156117f95780601f106117ce576101008083540402835291602001916117f9565b820191906000526020600020905b8154815290600101906020018083116117dc57829003601f168201915b505050505090806006018054600181600116156101000203166002900480601f0160208091040260200160405190810160405280929190818152602001828054600181600116156101000203166002900480156118975780601f1061186c57610100808354040283529160200191611897565b820191906000526020600020905b81548152906001019060200180831161187a57829003601f168201915b505050505090806007018054600181600116156101000203166002900480601f0160208091040260200160405190810160405280929190818152602001828054600181600116156101000203166002900480156119355780601f1061190a57610100808354040283529160200191611935565b820191906000526020600020905b81548152906001019060200180831161191857829003601f168201915b505050505090806008018054600181600116156101000203166002900480601f0160208091040260200160405190810160405280929190818152602001828054600181600116156101000203166002900480156119d35780601f106119a8576101008083540402835291602001916119d3565b820191906000526020600020905b8154815290600101906020018083116119b657829003601f168201915b505050505090806009018054600181600116156101000203166002900480601f016020809104026020016040519081016040528092919081815260200182805460018160011615610100020316600290048015611a715780601f10611a4657610100808354040283529160200191611a71565b820191906000526020600020905b815481529060010190602001808311611a5457829003601f168201915b50505050509080600a018054600181600116156101000203166002900480601f016020809104026020016040519081016040528092919081815260200182805460018160011615610100020316600290048015611b0f5780601f10611ae457610100808354040283529160200191611b0f565b820191906000526020600020905b815481529060010190602001808311611af257829003601f168201915b50505050509080600b0160009054906101000a900460ff1690508c565b61018060405190810160405280600063ffffffff168152602001606081526020016060815260200160608152602001606081526020016060815260200160608152602001606081526020016060815260200160608152602001606081526020016000151581525090565b828054600181600116156101000203166002900490600052602060002090601f016020900481019282601f10611bd757805160ff1916838001178555611c05565b82800160010185558215611c05579182015b82811115611c04578251825591602001919060010190611be9565b5b509050611c129190611c16565b5090565b611c3891905b80821115611c34576000816000905550600101611c1c565b5090565b90565b600082601f8301121515611c4e57600080fd5b8135611c61611c5c82612644565b612617565b91508082526020830160208301858383011115611c7d57600080fd5b611c888382846126e1565b50505092915050565b6000611c9d82356126c7565b905092915050565b6000611cb182356126d1565b905092915050565b6000806000806000806000806000806101408b8d031215611cd957600080fd5b60008b013567ffffffffffffffff811115611cf357600080fd5b611cff8d828e01611c3b565b9a505060208b013567ffffffffffffffff811115611d1c57600080fd5b611d288d828e01611c3b565b99505060408b013567ffffffffffffffff811115611d4557600080fd5b611d518d828e01611c3b565b98505060608b013567ffffffffffffffff811115611d6e57600080fd5b611d7a8d828e01611c3b565b97505060808b013567ffffffffffffffff811115611d9757600080fd5b611da38d828e01611c3b565b96505060a08b013567ffffffffffffffff811115611dc057600080fd5b611dcc8d828e01611c3b565b95505060c08b013567ffffffffffffffff811115611de957600080fd5b611df58d828e01611c3b565b94505060e08b013567ffffffffffffffff811115611e1257600080fd5b611e1e8d828e01611c3b565b9350506101008b013567ffffffffffffffff811115611e3c57600080fd5b611e488d828e01611c3b565b9250506101208b013567ffffffffffffffff811115611e6657600080fd5b611e728d828e01611c3b565b9150509295989b9194979a5092959850565b600060208284031215611e9657600080fd5b6000611ea484828501611c91565b91505092915050565b600060208284031215611ebf57600080fd5b6000611ecd84828501611ca5565b91505092915050565b6000611ee18261267d565b80845260208401935083602082028501611efa85612670565b60005b84811015611f33578383038852611f1583835161224c565b9250611f208261269e565b9150602088019750600181019050611efd565b508196508694505050505092915050565b611f4d816126ab565b82525050565b6000611f5e82612693565b808452611f728160208601602086016126f0565b611f7b81612723565b602085010191505092915050565b6000611f9482612688565b808452611fa88160208601602086016126f0565b611fb181612723565b602085010191505092915050565b6000601582527f52656e74616c20646f6573206e6f7420657869737400000000000000000000006020830152604082019050919050565b6000601682527f53746172742064617465206973207265717569726564000000000000000000006020830152604082019050919050565b6000601382527f55736572204944206973207265717569726564000000000000000000000000006020830152604082019050919050565b6000601c82527f52656e74616c20697320616c7265616479207465726d696e61746564000000006020830152604082019050919050565b6000601482527f456e6420646174652069732072657175697265640000000000000000000000006020830152604082019050919050565b6000600d82527f696e76616c696420696e646578000000000000000000000000000000000000006020830152604082019050919050565b600061018083016000830151612122600086018261238f565b506020830151848203602086015261213a8282611f89565b915050604083015184820360408601526121548282611f89565b9150506060830151848203606086015261216e8282611f89565b915050608083015184820360808601526121888282611f89565b91505060a083015184820360a08601526121a28282611f89565b91505060c083015184820360c08601526121bc8282611f89565b91505060e083015184820360e08601526121d68282611f89565b9150506101008301518482036101008601526121f28282611f89565b91505061012083015184820361012086015261220e8282611f89565b91505061014083015184820361014086015261222a8282611f89565b915050610160830151612241610160860182611f44565b508091505092915050565b600061018083016000830151612265600086018261238f565b506020830151848203602086015261227d8282611f89565b915050604083015184820360408601526122978282611f89565b915050606083015184820360608601526122b18282611f89565b915050608083015184820360808601526122cb8282611f89565b91505060a083015184820360a08601526122e58282611f89565b91505060c083015184820360c08601526122ff8282611f89565b91505060e083015184820360e08601526123198282611f89565b9150506101008301518482036101008601526123358282611f89565b9150506101208301518482036101208601526123518282611f89565b91505061014083015184820361014086015261236d8282611f89565b915050610160830151612384610160860182611f44565b508091505092915050565b612398816126b7565b82525050565b600060208201905081810360008301526123b88184611ed6565b905092915050565b600060208201905081810360008301526123d981611fbf565b9050919050565b600060208201905081810360008301526123f981611ff6565b9050919050565b600060208201905081810360008301526124198161202d565b9050919050565b6000602082019050818103600083015261243981612064565b9050919050565b600060208201905081810360008301526124598161209b565b9050919050565b60006020820190508181036000830152612479816120d2565b9050919050565b6000602082019050818103600083015261249a8184612109565b905092915050565b60006020820190506124b7600083018461238f565b92915050565b60006080820190506124d2600083018761238f565b81810360208301526124e48186611f53565b905081810360408301526124f88185611f53565b9050818103606083015261250c8184611f53565b905095945050505050565b60006101808201905061252d600083018f61238f565b818103602083015261253f818e611f89565b90508181036040830152612553818d611f89565b90508181036060830152612567818c611f89565b9050818103608083015261257b818b611f89565b905081810360a083015261258f818a611f89565b905081810360c08301526125a38189611f89565b905081810360e08301526125b78188611f89565b90508181036101008301526125cc8187611f89565b90508181036101208301526125e18186611f89565b90508181036101408301526125f68185611f89565b9050612606610160830184611f44565b9d9c50505050505050505050505050565b6000604051905081810181811067ffffffffffffffff8211171561263a57600080fd5b8060405250919050565b600067ffffffffffffffff82111561265b57600080fd5b601f19601f8301169050602081019050919050565b6000602082019050919050565b600081519050919050565b600081519050919050565b600081519050919050565b6000602082019050919050565b60008115159050919050565b600063ffffffff82169050919050565b6000819050919050565b600063ffffffff82169050919050565b82818337600083830152505050565b60005b8381101561270e5780820151818401526020810190506126f3565b8381111561271d576000848401525b50505050565b6000601f19601f830116905091905056fea265627a7a723058201eb5405285e8e51a7192e1b14843e595a71ec2f0b026ba6671eb7139364b525b6c6578706572696d656e74616cf50037",
  "source": "// SPDX-License-Identifier: MIT\r\npragma solidity >=0.4.22 <0.9.0;\r\npragma experimental ABIEncoderV2;\r\ncontract LandRentalContract {\r\n    uint32 public rentalCount = 0;\r\n\r\n    struct Rental {\r\n        uint32 id;\r\n        string ownerId;\r\n        string rentingUserId;\r\n        string userName;\r\n        string landId;\r\n        string landName;\r\n        string landLocation;\r\n        string startDate;\r\n        string endDate;\r\n        string totalPrice;\r\n        string monthlyPrice;\r\n        \r\n        bool isActive;\r\n    }\r\n\r\n    Rental[] public rentals;\r\n\r\n    event RentalCreated(\r\n        uint32 id,\r\n        string userId,\r\n        string startDate,\r\n        string endDate\r\n    );\r\n\r\n    event RentalTerminated(uint32 id);\r\n\r\n    function createRental(string memory userId, string memory rentingUserId, string memory userName, string memory landId, string memory landName, string memory landLocation,string memory startDate, string memory endDate, string memory price, string memory totalPrice) public {\r\n        require(bytes(userId).length > 0, \"User ID is required\");\r\n        require(bytes(startDate).length > 0, \"Start date is required\");\r\n        require(bytes(endDate).length > 0, \"End date is required\");\r\n        rentals.push(Rental(\r\n            rentalCount,\r\n            userId,\r\n            rentingUserId,\r\n            userName,\r\n            landId,\r\n            landName,\r\n            landLocation,\r\n            startDate,\r\n            endDate,\r\n            totalPrice,\r\n            price,\r\n            true\r\n        ));\r\n        rentalCount++;\r\n\r\n        emit RentalCreated(rentalCount, userId, startDate, endDate);\r\n    }\r\n\r\n    function terminateRental(uint32 id) public {\r\n        require(rentals[id].id != 0, \"Rental does not exist\");\r\n        require(rentals[id].isActive, \"Rental is already terminated\");\r\n\r\n        rentals[id].isActive = false;\r\n        emit RentalTerminated(id);\r\n    }\r\n\r\n    function getRental(uint32 id) public view returns (Rental memory) {\r\n        require(id > 0, \"invalid index\");\r\n        return rentals[id - 1];\r\n    }\r\n\r\n    function getRentals() public view returns (Rental[] memory) {\r\n        return rentals;\r\n    }\r\n}\r\n",
  "sourcePath": "D:\\4SIM\\Nest\\test_blockchain\\blockchain_prototype\\blockchain\\contracts\\LandRentalContract.sol",
  "compiler": {
    "name": "solc",
    "version": "0.5.1+commit.c8a2cb62.Emscripten.clang"
  },
  "schemaVersion": "3.4.16",
  "updatedAt": "2025-05-12T05:55:00.907Z",
  "networkType": "ethereum",
  "devdoc": {
    "methods": {}
  },
  "userdoc": {
    "methods": {}
  }
}